:020000040800F2
:1000000060090020F90A000815020008170200081C
:100010001B0200081F020008230200080000000065
:10002000000000000000000000000000270200089F
:1000300029020008000000002B0200082D02000821
:10004000130B0008130B0008130B0008130B000818
:10005000130B0008130B0008130B0008130B000808
:10006000130B0008130B0008130B0008130B0008F8
:10007000130B0008130B0008130B0008130B0008E8
:10008000130B0008130B0008130B0008130B0008D8
:10009000130B0008130B0008130B0008130B0008C8
:1000A000130B0008130B0008130B0008130B0008B8
:1000B000130B0008130B0008130B0008130B0008A8
:1000C000130B0008130B0008130B0008130B000898
:1000D000130B00086F0A0008130B0008130B00082D
:1000E000130B0008130B0008130B0008130B000878
:1000F000130B0008130B0008130B0008130B000868
:10010000130B0008130B0008130B0008130B000857
:10011000130B0008130B0008130B0008130B000847
:10012000130B0008130B0008130B0008130B000837
:1001300000F002F800F05AF80AA090E8000C82449F
:100140008344AAF10107DA4501D100F04FF8AFF27C
:10015000090EBAE80F0013F0010F18BFFB1A43F0A5
:100160000103184704200000242000000A444FF037
:10017000000C10F8013B13F0070408BF10F8014B06
:100180001D1108BF10F8015B641E05D010F8016B4B
:10019000641E01F8016BF9D113F0080F1EBF10F8AF
:1001A000014BAD1C0C1B09D16D1E58BF01F801CBD2
:1001B000FAD505E014F8016B01F8016B6D1EF9D555
:1001C0009142D6D37047000000230024002500266A
:1001D000103A28BF78C1FBD8520728BF30C148BFAA
:1001E0000B6070471FB51FBD10B510BD01F081FB3E
:1001F0001146FFF7F7FF00F008F801F09FFB03B48A
:10020000FFF7F2FF03BC00F0D7FB10B501F055FB80
:10021000002010BD704700BFFEE700BFFEE700BF33
:10022000FEE700BFFEE77047704770477047000069
:100230000CB50020019000906C48006840F48030BC
:100240006A49086000BF6948006800F40030009007
:100250000198401C0190009818B90198B0F5A06F62
:10026000F1D16248006800F4003010B10120009024
:1002700001E0002000900098012843D15C4800680C
:1002800040F010005A4908600846006820F003005A
:1002900008600846006840F0020008605348406863
:1002A000524948600846406848600846406840F443
:1002B000806048600846406820F47C10486008462A
:1002C000406840F4E81048600846006840F08070DC
:1002D000086000BF4548006800F000700028F9D0B1
:1002E0004248406820F003004049486008464068A2
:1002F00040F00200486000BF3C48406800F00C003D
:100300000828F9D10CBD10B5FFF792FF10BD10B54C
:100310003648006840F001003449086008464068EB
:10032000344908403149486008460068324908406D
:100330002E4908600846006820F4802008600846BE
:10034000406820F4FE0048604FF41F008860FFF70B
:10035000DAFF4FF000602949086010BD10B5002198
:1003600000200022214B5B6803F00C0121B104291D
:1003700006D0082928D107E0214B224C236027E032
:100380001F4B204C236023E0184B5B6803F4701074
:10039000164B5B6803F48032022303EB904022B9D2
:1003A000194B4343174C23600DE0104B5B6803F47B
:1003B000003323B1144B4343124C236003E0104B32
:1003C0004343104C236003E00D4B0E4C236000BFF1
:1003D00000BF064B5B68C3F303130C4CE15C094B95
:1003E0001B68CB40074C236010BD0000001002408A
:1003F000002002400000FFF8FFFFF6FE08ED00E0DD
:1004000000127A000000002000093D0004000020D6
:1004100070B504460E4626B12021FE4800F007FDC7
:1004200003E02021FB4800F004FD0821F94800F01A
:1004300000FD002517E04021F64800F0FAFC04F02A
:10044000800020B18021F34800F0F1FC03E080211E
:10045000F04800F0EEFC4021EE4800F0E8FC6006B9
:10046000040E681CC5B2082DE5DB0821E94800F040
:10047000DEFC2021E74800F0DAFC70BD70B50446D0
:100480000D4605F1B001C8B20021FFF7C1FF1021F0
:1004900041EA14100021FFF7BBFF04F00F0141F007
:1004A00001000021FFF7B4FF70BD10B500218D20C1
:1004B000FFF7AEFF00211420FFF7AAFF0021AF20B5
:1004C000FFF7A6FF10BD10B500218D20FFF7A0FF9C
:1004D00000211020FFF79CFF0021AE20FFF798FFBE
:1004E00010BD70B5002419E004F1B001C8B20021BC
:1004F000FFF78EFF00210220FFF78AFF0021102066
:10050000FFF786FF002505E001210020FFF780FFAF
:10051000681CC5B2802DF7DB601CC4B2082CE3DB7D
:1005200070BD2DE9F04107460E4690460025002497
:10053000A8F12000C5B27F2F02DD0027B01CC6B293
:1005400031463846FFF79AFF002408E004EB051116
:10055000B14A505C0121FFF75BFF601CC4B2082C5C
:10056000F4DB701CC1B23846FFF788FF002409E0B5
:1005700004EB05110831A84A505C0121FFF748FF40
:10058000601CC4B2082CF3DBBDE8F08110B5024654
:10059000012000E050430B00A1F10104E1B2F9D1C8
:1005A00010BD2DE9FF5F074691461D460E9E4FF098
:1005B000000A002433E0281B401EC1B20A20FFF7C6
:1005C000E5FFB9FBF0F00A21B0FBF1F201FB1208E4
:1005D000BAF1000F13D1681EA04210DDB8F1000F70
:1005E0000BD1B34606EBDB71491001FB0471C8B2B5
:1005F00020220199FFF795FF0FE04FF0010AB34663
:1006000006EBDB71491001FB0471C8B208F130013F
:10061000CAB20199FFF785FF00BF601CC4B2AC42AB
:10062000C9DBBDE8FF9F2DE9F04104460F461546A2
:1006300000260EE0AA5D39462046FFF772FF04F15E
:100640000800C4B2782C02DD0024B81CC7B2701CAC
:10065000C6B2A85D0028EDD1BDE8F0812DE9F041DA
:1006600080460E461546002731464046FFF706FFF6
:1006700000240AE0694A02EB8511085D0121FFF7B9
:10068000C7FE781CC7B2601CC4B2102CF2DB701C11
:10069000C1B24046FFF7F2FE00240CE06900491C9D
:1006A0005E4A02EB4111085D0121FFF7B1FE781CA3
:1006B000C7B2601CC4B2102CF0DBBDE8F0812DE99C
:1006C000F05F06460F4690461C46DDF828A04FF026
:1006D000000BE11704EB5171C910A4EBC10131B952
:1006E0002046E11704EB5171C1F3C70506E020462F
:1006F000E11704EB5171C910491CCDB23D4615E01C
:1007000029463046FFF7BAFEB1460BE059460BF1D9
:10071000010B1AF801000121FFF77AFE09F101002F
:1007200000F0FF09C145F1DB681CC5B2A542E7DB5B
:10073000BDE8F09F08B501214FF4947000F086FDEC
:100740004FF4FC70ADF8000010208DF8030003207A
:100750008DF8020069462F4800F0BCFA4FF4FC7196
:100760002C4800F064FB0320ADF8000069462C48DB
:1007700000F0B0FA03212A4800F059FB4FF4004082
:10078000ADF800006946274800F0A4FA4FF4004194
:10079000244800F04CFB10211E4800F048FB642068
:1007A00000F0D7F810211B4800F043FB642000F054
:1007B000D0F81021174800F03AFB0021AE20FFF7D7
:1007C00027FE00210220FFF723FE00211020FFF763
:1007D0001FFE00214020FFF71BFE00218120FFF7B4
:1007E00017FE0021CF20FFF713FE0021A120FFF705
:1007F0000FFE0021C820FFF70BFE0021A620FFF707
:1008000007FE0021A820FFF703FE00213F20FFF78D
:10081000FFFD09E000140140781B000814000020CF
:10082000001001400020014000218120FFF7F0FD71
:100830000021FF20FFF7ECFD0021D320FFF7E8FDAA
:1008400000210846FFF7E4FD0021D520FFF7E0FD79
:1008500000218020FFF7DCFD0021D920FFF7D8FD23
:100860000021F120FFF7D4FD0021DA20FFF7D0FDB1
:1008700000211220FFF7CCFD0021DB20FFF7C8FD8F
:1008800000214020FFF7C4FD00212020FFF7C0FD1C
:1008900000210220FFF7BCFD00218D20FFF7B8FDED
:1008A00000211420FFF7B4FD0021A420FFF7B0FDC4
:1008B0000021A620FFF7ACFD0021AF20FFF7A8FD27
:1008C0000021AF20FFF7A4FDFFF70BFE0021084633
:1008D000FFF7D4FD08BD000010B56FF0040000F074
:1008E0007AF92E4800682E49B0FBF1F02D490870C6
:1008F0000846007800EB4001C1EBC0104FF6FF71D5
:1009000001EAC0002849088010BD0146254A127836
:100910004A434FF0E0235A6100229A611A46126955
:1009200042F001021A6100BF4FF0E022106900F0AE
:1009300001021AB100F48032002AF5D04FF0E02213
:10094000126922F001024FF0E0231A6100229A613D
:1009500070470146144A12884A434FF0E0235A6117
:1009600000229A611A46126942F001021A6100BF20
:100970004FF0E022106900F001021AB100F4803259
:10098000002AF5D04FF0E022126922F001024FF068
:10099000E0231A6100229A617047000000000020E5
:1009A00000127A00D4010020D601002010B54FF4C7
:1009B000A06000F0C1F810BD014600BF704700BF45
:1009C000494A128802F04002002AF9D0C2B2464BCE
:1009D0001B1D1A80704710B586B00446012144F2F1
:1009E000050000F033FC4FF40070ADF81400032054
:1009F0008DF8160018208DF8170005A93B4800F067
:100A000069F94FF48060ADF8140004208DF81700E8
:100A100005A9364800F05EF925208DF80000032076
:100A20008DF801008DF8020001208DF80300684662
:100A300000F087F801940020ADF80800ADF80A0036
:100A4000ADF80C00ADF810000C20ADF80E0001A9B7
:100A5000254800F0A2FC012240F22551224800F076
:100A600034FD0121204800F024FD06B010BD10B572
:100A700040F225511C4800F00DFE10B31A4800F05A
:100A800089FDC4B21A48008800F40040C8B918486B
:100A9000008800F4804060B10A2C03D00020144983
:100AA000088020E01248008840F400401049088087
:100AB00019E00D2C06D10E48008840F480400C4906
:100AC000088010E00A480088C0F30D0009490C5462
:100AD00007480088401C0649088008460088C72847
:100AE00001DD0020088010BD0038014000080140F1
:100AF000DC010020380200200948804709480047EF
:100B0000FEE7FEE7FEE7FEE7FEE7FEE7FEE7FEE7BD
:100B1000FEE7FEE704480549054A064B704700001A
:100B20000F03000831010008600300206009002065
:100B3000600500206005002031490143314A116001
:100B4000704770B5002100230F22C47804B32D4CE8
:100B5000246804F4E064C4F5E064210AC1F10403EC
:100B6000CA40447804FA03F184781440214309010F
:100B7000254C0678A155047804F01F050124AC40EB
:100B800005786D11AD0005F1E025C5F8004109E0DB
:100B9000047804F01F050124AC401C4D0678761142
:100BA00045F8264070BD1A4A0A400243154B1B1FE8
:100BB0001A60704739B1134A121D12680243114B73
:100BC0001B1D1A6006E00F4A121D126882430D4B6E
:100BD0001B1D1A607047042808D14FF0E0210969F5
:100BE00041F004014FF0E022116107E04FF0E021F5
:100BF000096921F004014FF0E02211617047000003
:100C00000000FA050CED00E000E400E080E100E007
:100C100080FFFF1F10B50446CC48844208D1012153
:100C2000042000F02DFB0021042000F029FB46E009
:100C3000C748844208D10121082000F021FB00218F
:100C4000082000F01DFB3AE0C248844208D101218F
:100C5000102000F015FB0021102000F011FB2EE009
:100C6000BD48844208D10121202000F009FB002169
:100C7000202000F005FB22E0B848844208D1012181
:100C8000402000F0FDFA0021402000F0F9FA16E0C3
:100C9000B348844208D10121802000F0F1FA0021FC
:100CA000802000F0EDFA0AE0AE48844207D101212D
:100CB000801500F0E5FA0021A01500F0E1FA10BD62
:100CC00010B50121084600F0DBFA0021012000F0F8
:100CD000D7FA10BD2DE9F04102460025002600207C
:100CE00000230024002791F803C00CF00F0591F8B1
:100CF00003C00CF0100CBCF1000F03D091F802C03F
:100D00004CEA050591F800C0BCF1000F31D0146821
:100D100000202BE04FF0010C0CFA00F3B1F800C0FA
:100D20000CEA03069E4220D183004FF00F0C0CFA10
:100D300003F7BC4305FA03FC4CEA040491F803C032
:100D4000BCF1280F06D14FF0010C0CFA00FCC2F8E0
:100D500014C00AE091F803C0BCF1480F05D14FF070
:100D6000010C0CFA00FCC2F810C0401C0828D1D3BA
:100D70001460B1F800C0BCF1FF0F34DD54680020EE
:100D80002EE000F1080C4FF0010808FA0CF3B1F85E
:100D900000C00CEA03069E4221D183004FF00F0CE5
:100DA0000CFA03F7BC4305FA03FC4CEA040491F87F
:100DB00003C0BCF1280F05D100F1080C08FA0CF8AB
:100DC000C2F8148091F803C0BCF1480F07D100F1BC
:100DD000080C4FF0010808FA0CF8C2F81080401C0B
:100DE0000828CED35460BDE8F0814FF6FF71018032
:100DF000022181700421C17070470246002093686F
:100E00000B400BB1012000E00020704701468868CC
:100E100080B2704702460020D3680B400BB101201E
:100E200000E0002070470146C86880B27047016149
:100E30007047416170470AB1016100E0416170474C
:100E4000C16070474FF480320A43826181618261E0
:100E500082698269704702460020434B18684FF64A
:100E60008073184040EA021008433F4B18607047F7
:100E70003E49C8617047F0B50A46002300240021AE
:100E8000002500F00046B6F1004F02D1364EF16960
:100E900001E0354E7168C0F3034583B200F440169B
:100EA000B6F5401F08D121F070612F4E766826F00C
:100EB00070662D4F7E6012E000F48016B6F5801F3C
:100EC00006D1032606FA05F4A14341F0706106E05D
:100ED000460D360103FA06F6B14341F0706122B1C6
:100EE000460D360103FA06F6314300F00046B6F12E
:100EF000004F02D11C4EF16101E01B4E7160F0BD4C
:100F000030B500228B071C0F0F2303FA04F2164B97
:100F100008338C1053F824309343134C08348D104D
:100F200044F8253023468C1053F824308C07240FC6
:100F300000FA04F423430C4C08348D1044F8253097
:100F400030BD0A49DC3108607047000000080140EC
:100F5000000C014000100140001401400018014045
:100F6000001C014000200140000001400000204220
:100F7000DF48006840F00100DD490860084640682D
:100F8000DC490840DA49486008460068DA49084008
:100F9000D74908600846006820F4802008600846A9
:100FA000406820F4FE0048604FF41F0088607047DE
:100FB000CF49096821F48031CD4A11601146096892
:100FC00021F480211160B0F5803F03D0B0F5802F6F
:100FD0000ED106E0C649096841F48031C44A116067
:100FE00007E0C349096841F4A021C14A116000E04B
:100FF00000BF00BF704710B501460022002300204B
:101000004A11012A02D1BA4C236806E0022A02D111
:10101000B74C236A01E0B64C636A01F01F02012459
:1010200094401C400CB1012000E0002010BD38B5F8
:10103000002000900024002500BF3120FFF7DBFFD7
:1010400005460098401C00900098B0F5A06F01D0B4
:10105000002DF2D03120FFF7CEFF08B1012400E0CF
:101060000024204638BD01460020A14A106820F027
:10107000F80040EAC10010607047A049086070475E
:10108000024600209A4B586820F47C1042EA010383
:101090001843974B58607047984908667047014657
:1010A0000020934A506820F00300084350607047C6
:1010B0008F48406800F00C007047014600208C4AC1
:1010C000506820F0F000084350607047014600204F
:1010D000874A506820F4E06008435060704701463A
:1010E0000020834A506820F4605040EAC1005060FC
:1010F000704729B17E4A527A02437D4B5A7204E00E
:101100007B4A527A82437A4B5A7270477B49D83174
:101110000860704701460020754A506820F440403E
:101120000843506070470021714A20321170704AA4
:1011300082F82010012802D004280AD104E00121FD
:101140006B4A2032117005E00521694A2032117086
:1011500000E000BF00BF70476949086070476449FC
:10116000096A0143624A116270476549443908605F
:10117000704730B500210022002400235C4D6D68CB
:1011800005F00C0121B1042905D0082923D105E07F
:101190005C4D056022E05B4D05601FE0544D6D68BD
:1011A00005F47012524D6D6805F48034022505EB8C
:1011B00092421CB9544D554305600BE04C4D6D688F
:1011C00005F400351DB1504D5543056002E04D4D0D
:1011D0005543056002E04B4D056000BF00BF444D24
:1011E0006D6805F0F0010909484D6B5C0568DD404C
:1011F00045603F4D6D6805F4E061090A434D6B5C45
:101200004568DD4085603A4D6D6805F46051C90A56
:101210003E4D6B5C4568DD40C560354D6D6805F43D
:101220004041890B3A4D6B5CC568B5FBF3F5056130
:1012300030BD29B12E4A526902432D4B5A6104E058
:101240002B4A526982432A4B5A61704729B1284A76
:1012500092690243264B9A6104E0254A92698243CF
:10126000234B9A61704729B1214AD2690243204B2E
:10127000DA6104E01E4AD26982431D4BDA6170478D
:1012800029B11B4AD2680243194BDA6004E0184ABC
:10129000D2688243164BDA60704729B1144A12694A
:1012A0000243134B1A6104E0114A12698243104B46
:1012B0001A61704712494039086070470F49C86485
:1012C00070470B49C87170470948406A40F0807008
:1012D00007494862704701460020054A92680A4063
:1012E0000AB1012000E00020704701498872704770
:1012F000001002400000FFF8FFFFF6FE000042422F
:101300008004424200127A0000093D00DE01002004
:10131000EE01002010B50446FB48844209D10121AA
:101320008803FFF7ADFF00214FF48040FFF7A8FFCF
:1013300032E0F648844209D101214804FFF7ADFFAD
:1013400000214FF40030FFF7A8FF25E0F048844269
:1013500009D101218804FFF7A0FF00214FF480206C
:10136000FFF79BFF18E0EB48844209D10121C80434
:10137000FFF793FF00214FF40020FFF78EFF0BE0F3
:10138000E548844208D101210805FFF786FF0021C6
:101390004FF48010FFF781FF10BD2DE9F04786B0B4
:1013A00005460E460024A24600BFA1460027B0898C
:1013B00000B100BF2F462C8A4CF6FF700440F08825
:1013C00004432C82AC894EF6F3100440B088318976
:1013D0000843718908430443AC81AC8A4FF6FF404F
:1013E0000440B0890443AC8201A8FFF7C2FEC6489E
:1013F000874202D1DDF810A001E0DDF80CA0A88939
:1014000000F4004040B10AEBCA0000EB0A1031685A
:101410004900B0FBF1F807E00AEBCA0000EB0A1044
:1014200031688900B0FBF1F86420B8FBF0F00401EA
:101430002009642101FB1089A88900F4004040B113
:10144000322000EBC900B0FBF1F000F007000443CC
:1014500008E0322000EB09106421B0FBF1F000F04D
:101460000F0004432C8106B0BDE8F0874FF41651FD
:10147000016000218180C18001810C214181002116
:101480008181704710B502460020108A4FF2FF0399
:1014900018400B884C8823438C882343CC882343F3
:1014A0001843108210BD0021018041808180C180DD
:1014B000704721B1828942F40052828104E082891E
:1014C0004DF6FF731A4082817047F0B50346002441
:1014D00000260025002040F66A17B94200D100BF5F
:1014E0001846C1F3421401F01F06012707FA06F55A
:1014F000012C01D10C3004E0022C01D1103000E0AD
:1015000014301AB107682F43076002E00768AF4341
:101510000760F0BD1AB1838A0B43838202E0838A9D
:101520008B4383827047028A4FF6F0731A4002821F
:10153000028A0A430282704782894FF2FF731A407F
:10154000828182890A438281704721B1828942F077
:101550000202828104E082894FF6FD731A40828183
:101560007047028A4FF6DF731A400282028A0A43EA
:101570000282704721B1028A42F48042028204E072
:10158000028A4BF6FF731A4002827047C1F30802C9
:101590008280704701468888C0F3080070478189BF
:1015A00041F0010181817047028BD2B20283028B2C
:1015B00042EA012202837047028B02F47F420283D7
:1015C000028B0A430283704721B1828A42F02002D3
:1015D000828204E0828A4FF6DF731A40828270476B
:1015E00021B1828A42F01002828204E0828A4FF6A0
:1015F000EF731A408282704721B1828A42F008025A
:10160000828204E0828A4FF6F7731A408282704722
:1016100021B1828942F40042828103E08289C2F3CF
:101620000E028281704721B1828A42F40062828276
:1016300004E0828A4FF2FF731A4082827047828AE6
:101640004FF6FB731A408282828A0A438282704775
:1016500021B1828A42F00202828204E0828A4FF63D
:10166000FD731A408282704702460020B1F5007F68
:1016700000D100BF13880B400BB1012000E0002017
:10168000704701F40072B2F5007F00D100BFCA4379
:101690000280704770B50246002400230025002018
:1016A00040F66A16B14200D100BFC1F3421501F005
:1016B0001F03012606FA03F3012D02D19689334058
:1016C00006E0022D02D1168A334001E0968A3340AB
:1016D0000C12012606FA04F41688344013B10CB13A
:1016E000012000E0002070BD10B50022002340F66C
:1016F0006A14A14200D100BF0A1201249440A3B28F
:10170000DC43048010BD000000380140004400406C
:1017100000480040004C00400050004008B5012146
:101720000420FFF793FD10208DF803000F20ADF883
:10173000000003208DF8020069466948FFF7CAFAE5
:1017400048208DF80300F020ADF8000003208DF84C
:10175000020069466248FFF7BDFA08BD10B5FFF701
:10176000BBF8FFF723F9FEF7E5FFFEF7BAFEFFF738
:10177000D5FF10BD10B5012211465948FFF75BFB9C
:10178000012202215648FFF756FB0122042154484A
:10179000FFF751FB012208215148FFF74CFB10BD18
:1017A00038B50446092C08DC10200123224600210C
:1017B00000900846FEF7F5FE07E0102002232246BF
:1017C000002100900846FEF7ECFE38BD10B5044637
:1017D00034B1012C0AD0022C0ED0032C18D111E008
:1017E000002201213E48FFF726FB11E000220221E2
:1017F0003B48FFF720FB0BE0002204213848FFF7AD
:101800001AFB05E0002208213548FFF714FB00BF52
:1018100000BF10BD70B505462D1D042D06D0052D49
:101820000AD0062D0ED0072D18D111E010212C481A
:10183000FFF7E3FA044611E020212948FFF7DDFA1B
:1018400004460BE040212648FFF7D7FA044605E09E
:1018500080212348FFF7D1FA044600BF00BF20468D
:1018600070BD2DE9F041804600240EE0002509E01E
:101870001C4800EB041050F82500404501D12646D5
:101880002F466D1C042DF3D3641C042CEED330467C
:10189000FFF79CFF3846FFF7BDFF50B9114901EB38
:1018A000061131F8271088B2FFF77AFF0A20FFF7F8
:1018B00050F8FFF75FFFBDE8F0810124FFF74EFF0E
:1018C0000CE0012408E02046FFF7CBFF102C02D1EA
:1018D0000024FEF706FE641C112CF4D3F1E700008F
:1018E00000080140F80100207047704770477047BA
:1018F0007047754600F028F8AE4605006946534625
:1019000020F00700854618B020B5FFF703F9BDE8C1
:1019100020404FF000064FF000074FF000084FF056
:10192000000B21F00701AC46ACE8C009ACE8C009E7
:10193000ACE8C009ACE8C0098D4670470446AFF377
:1019400000802046FEF75BFC004870470003002043
:101950000000000000000000002F00000000070051
:10196000070000147F147F1400242A7F2A120062CB
:101970006408132300364955225000000503000077
:1019800000001C224100000041221C000014083EFF
:1019900008140008083E0808000000A060000008C5
:1019A0000808080800006060000000201008040219
:1019B000003E5149453E0000427F400000426151D7
:1019C0004946002141454B31001814127F10002771
:1019D00045454539003C4A49493000017109050334
:1019E00000364949493600064949291E0000363665
:1019F00000000000563600000008142241000014C8
:101A000014141414000041221408000201510906A4
:101A100000324959513E007C1211127C007F494925
:101A20004936003E41414122007F4141221C007F56
:101A300049494941007F09090901003E4149497A64
:101A4000007F0808087F0000417F410000204041DE
:101A50003F01007F08142241007F40404040007F4A
:101A6000020C027F007F0408107F003E4141413E8E
:101A7000007F09090906003E4151215E007F0919D6
:101A800029460046494949310001017F0101003FD3
:101A90004040403F001F2040201F003F4038403F53
:101AA00000631408146300070870080700615149B7
:101AB000454300007F41410000552A552A5500004A
:101AC00041417F00000402010204004040404040C8
:101AD000000001020400002054545478007F484460
:101AE000443800384444442000384444487F003897
:101AF0005454541800087E0901020018A4A4A47CC0
:101B0000007F080404780000447D40000040808489
:101B10007D00007F102844000000417F4000007CD1
:101B200004180478007C08040478003844444438DD
:101B300000FC242424180018242418FC007C080429
:101B4000040800485454542000043F444020003C02
:101B50004040207C001C2040201C003C4030403C89
:101B6000004428102844001CA0A0A07C0044645419
:101B70004C4414141414141400000000000000005D
:101B80000000000000000000000000F8000000005D
:101B9000000000333000000000100C06100C06009E
:101BA000000000000000000040C07840C078400005
:101BB000043F04043F040400007088FC0830000067
:101BC000001820FF211E0000F008F000E0180000BF
:101BD00000211C031E211E0000F008887000000078
:101BE0001E2123241927211010160E0000000000CA
:101BF0000000000000000000000000E018040200E7
:101C0000000000071820400000020418E000000057
:101C10000040201807000000404080F08040400055
:101C20000202010F01020200000000F000000000AB
:101C30000101011F0101010000000000000000007F
:101C400080B07000000000000000000000000000F4
:101C5000000101010101010100000000000000007D
:101C60000030300000000000000000008060180418
:101C7000006018060100000000E010080810E000F5
:101C8000000F102020100F00001010F800000000BE
:101C90000020203F20200000007008080888700005
:101CA0000030282422213000003008888848300085
:101CB0000018202020110E000000C02010F80000A5
:101CC00000070424243F240000F80888880808003E
:101CD0000019212020110E0000E010888818000053
:101CE000000F112020110E0000380808C838080025
:101CF0000000003F000000000070880808887000A5
:101D0000001C222121221C0000E010080810E00025
:101D10000000312222110F00000000C0C0000000AE
:101D200000000030300000000000008000000000D3
:101D300000008060000000000000804020100800CB
:101D40000001020408102000404040404040400094
:101D5000040404040404040000081020408000006F
:101D60000020100804020100007048080808F00074
:101D70000000003036010000C030C828E810E00044
:101D80000718272423140B000000C038E0000000CF
:101D9000203C23020227382008F888888870000039
:101DA000203F202020110E00C0300808080838000D
:101DB000071820202010080008F808080810E00084
:101DC000203F202020100F0008F88888E808100025
:101DD000203F20202320180008F88888E8081000F9
:101DE000203F200003000000C03008080838000031
:101DF00007182020221E020008F808000008F80832
:101E0000203F210101213F20000808F808080000B8
:101E10000020203F2020000000000808F8080800EB
:101E2000C08080807F00000008F888C02818080063
:101E3000203F20012638200008F80800000000009C
:101E4000203F20202020300008F8F800F8F8080093
:101E5000203F003F003F200008F830C00008F8088D
:101E6000203F200007183F00E01008080810E0009D
:101E70000F10202020100F0008F808080808F000B4
:101E8000203F210101010000E01008080810E000D7
:101E90000F18242438504F0008F88888888870006C
:101EA000203F2000030C302000708808080838000C
:101EB0000038202121221C00180808F80808180002
:101EC0000000203F2000000008F808000008F80883
:101ED000001F202020201F000878880000C8380834
:101EE000000007380E010000F80800F80008F800AC
:101EF000033C0700073C0300081868808068180846
:101F000020302C03032C30200838C800C8380800C3
:101F10000000203F2000000010080808C838080012
:101F20002038262120201800000000FE02020200B6
:101F30000000007F40404000000C30C00000000066
:101F4000000000010638C00000020202FE0000008E
:101F5000004040407F000000000004020202040034
:101F60000000000000000000000000000000000071
:101F70008080808080808080000202040000000059
:101F80000000000000000000000080808080000051
:101F90000019242222223F2008F80080800000003F
:101FA000003F112020110E00000000808080000002
:101FB000000E112020201100000000808088F80011
:101FC000000E112020103F20000080808080000043
:101FD000001F222222221300008080F088888818A7
:101FE0000020203F202000000000808080808000B2
:101FF000006B94949493600008F800808080000047
:10200000203F210000203F20008098980000000021
:102010000020203F20200000000000809898000051
:1020200000C08080807F000008F800008080800071
:10203000203F24022D302000000808F80000000096
:102040000020203F20200000808080808080800051
:10205000203F20003F20003F8080008080800000E3
:10206000203F210000203F20000080808080000071
:10207000001F202020201F008080008080000000A2
:1020800080FFA12020110E000000008080808000D1
:10209000000E112020A0FF808080800080808000C2
:1020A00020203F21200001000000808080808000EF
:1020B0000033242424241900008080E08080000064
:1020C0000000001F202000008080000000808000B1
:1020D000001F202020103F20808080000080808012
:1020E00000010E30080601008080008000808080A2
:1020F0000F300C030C300F000080800080808000C7
:102100000020312E0E3120008080800000808080F1
:1021100080818E70180601000080808080808000A1
:102120000021302C2221300000000000807C0202BF
:1021300000000000003F404000000000FF000000E1
:1021400000000000FF0000000002027C8000000090
:102150000040403F000000000006010102020404AC
:10216000000000000000000088210008000000209E
:10217000380200006C0100088022000838020020AC
:1021800028070000C80100081184A24A04200901A0
:10219000020304060708091BF010012AFF050215B7
:1021A000F01B0F04012AFF0502130F1809404040DD
:1021B0005F55555575041A5F0C091121080C112043
:1021C0000F094989790909090F201F112FFE0242C1
:1021D0004ACA4A0304134202FE000E14FF40504C48
:1021E0004340404F50505C40FF1BF888012AFF05D8
:1021F0000215F81B1F08012A7F200B109F80E23B6D
:10220000808201000916E2A2928A868280800418E8
:1022100040807F172424A4FEA3221B22CCAA0114F1
:1022200015080601FF2B0104010511FF02020258E7
:1022300008101010FF109008C3021108080F1504B1
:1022400044827F01808040432C10284681A0912D3C
:1022500001020304045808060708090204064F3265
:1022600001297A2A035031320532062A07A0313279
:1022700009320A320B320C320D320E2A0FA0310015
:0400000508000131BD
:00000001FF
